:100000006F00C072000000002C02000034020000EB
:1000100000000000000000000000000000000000E0
:1000200000000000000000000000000000000000D0
:100030002A070000000000002A070000000000005E
:100040002A0700002A0700002A0700002A070000EC
:100050002A0700002A0700002A0700002A070000DC
:100060002A0700002A0700002A0700002A070000CC
:100070002A0700002A0700002A0700002A070000BC
:10008000C40100002A0700002A0700002A07000018
:100090002A0700002A0700004A02000000000000B2
:1000A0002A86014593F6150091C232958581060690
:1000B000F5F9828000000000634E050263C3050469
:1000C0002E86AA857D5515C285466378B60063568F
:1000D000C00006068606E36CB6FE014563E4C50073
:1000E000918D558D85820582F5FA82808682C93F81
:1000F0002E8582823305A04063D70500B305B0404A
:10010000C1B7B305B0408682653F3305A040828207
:10011000868263C70500634905005D372E858282AC
:10012000B305B040E35B05FE3305A040513F330506
:10013000B04082820000011106CE22CC001085451D
:100140000545EF10800E231704FE231504FE9307C8
:1001500020032308F4FE9307703E2316F4FEF17784
:100160009387F7B72314F4FE930784FEBE85370503
:100170000040EF10E00F854537050040EF100032DA
:10018000930760022300F4FE8547A300F4FE854731
:100190002301F4FE85472322F4FE930704FE3E85E7
:1001A000EF00B0440546854537050040EF10801D3F
:1001B000854537050040EF10E0170100F24062442A
:1001C00005618280611122C2200093055052B74719
:1001D000014013850780EF10806DAA879DCBB7473C
:1001E000014013850780EF100066AA87A30DF4FE77
:1001F0008347B4FFC207C183FD17C207C183BE8511
:1002000037050040EF10A020814537050040EF1072
:10021000E01D93055052B747014013850780EF104A
:10022000A07801001244210173002030711122C016
:10023000400001A0711122C04000B7E700E037077D
:10024000EFBE13070708B8C701A0711122C0400014
:10025000854537050040EF10A01D2A8785476317A5
:10026000F700B70700200547238CE70285453705CF
:100270000040EF10A0220100024411017300203061
:10028000797106D622D40018232404FE232604FE06
:10029000232804FE232C04FC232E04FC232004FE2C
:1002A000232204FE232804FC232A04FC85459167AD
:1002B00013850702EF001073930700022314F4FE66
:1002C0008D472326F4FEE1472328F4FE930784FE9E
:1002D000BE85B717014013850740EF00701B9307D9
:1002E00000042314F4FE91472328F4FE930784FEB0
:1002F000BE85B717014013850740EF007019F167FD
:1003000093870720232CF4FC231E04FC231F04FCEA
:10031000231004FE231204FEB1472311F4FE9305BB
:100320005052B747014013850780EF10E0679307ED
:1003300000022308F4FC8547232AF4FCA30804FCEC
:10034000230904FC930704FD3E85EF00102A930760
:1003500084FDBE85B747014013850780EF10C016A6
:10036000054693055052B747014013850780EF10AB
:10037000803E8545B747014013850780EF10203840
:100380000100B250225445618280311106C822C654
:10039000400885472328F4FE85472326F4FE93076B
:1003A000C4FE3E85EF0070340545EF00103A0100B1
:1003B000C240324451018280211106CA22C820085D
:1003C0000545EF00B020292AEF108074F1671385EE
:1003D0000720EF1010016D35EF10C061A93B753794
:1003E0001305803EEF104078B707002003C787034E
:1003F0008547E31BF7FEEF10806DAA872315F4FEF7
:100400009307A4FE2326F4FEA30904FE81A00100A5
:1004100093050004B747014013850780EF10E044BF
:10042000AA87FDD7834734FF0327C4FEBA979C23CE
:10043000C207C183BE85B747014013850780EF100F
:10044000C03D834734FF8507A309F4FE034734FF0B
:100450008547E3FEE7FAB7070020238C070269B758
:10046000511106C422C26000B71702409843B71763
:1004700002401367170098C3B7170240D443B71759
:1004800002403707FFF8758FD8C3B717024094436F
:10049000B71702403707F7FE7D17758F98C3B71758
:1004A00002409443B71702403707FCFF7D17758F52
:1004B00098C3B7170240D443B717024041777D175E
:1004C000758FD8C3B717024037079F0098C74145BB
:1004D000EF00B02C312A0100A24012443101828089
:1004E000311106C822C64008232804FE232604FE34
:1004F000B7170240DC43B18B2328F4FE032704FF27
:1005000091476303F702032704FFA1476307F7023C
:10051000832704FFB9EFB707002037376E011307B1
:10052000076023A0E700B9A8B707002037376E019E
:100530001307076023A0E700B1A0B7170240D84314
:10054000C167F98F2326F4FE8327C4FE91EBB7071A
:1005500000203777DC02130707C023A0E7001DA0A7
:10056000B70700203777DC02130707C023A0E70096
:1005700011A8B707002037376E011307076023A0C3
:10058000E7000100B7170240DC43918313F7F7003F
:10059000B707002093874700BA979C2393F7F70F7C
:1005A0002328F4FEB7170240DC4393F7070885E3DE
:1005B000B707002083A70700832504FF3E8509367F
:1005C000AA873E87B707002023A0E70029A8B7071E
:1005D000002003A70700832704FF3357F700B7075E
:1005E000002023A0E7000100C24032445101828074
:1005F000511106C422C26000B7170240984FB717C6
:1006000002401367070298CFB7170140938707404E
:100610009843B7170140938707401377F7F098C3C3
:10062000B7170140938707409843B7170140938756
:1006300007401367070898C3B7170140938707401F
:10064000094798CB31200100A24012443101828039
:10065000411106C622C40008A30904FEB7F7FF1F14
:100660009387477D9C23A309F4FE034734FF930738
:10067000F00F630AF700834734FFFD8B93F7F70F02
:100680003E85EF009011B72702409843B7270240FC
:10069000719B98C3B72702409843B727024013675E
:1006A000170098C337170240B71702405843D8C302
:1006B000B7170240D443B717024041777D17758FB3
:1006C000D8C337170240B71702405843D8C3B717EB
:1006D00002409443B717024037070001558F98C373
:1006E0000100B71702409843B7070002F98FF5DB06
:1006F000B7170240D843B7170240719BD8C3B7174A
:100700000240D843B717024013672700D8C301003F
:10071000B7170240DC4313F7C700A147E31AF7FEFF
:100720000100B24022444101828001A097010020D3
:100730009381C110138181FC1305000A97050020E5
:100740009385458C170600201306C68B63FAC500F7
:100750008322050023A0550011059105E3EAC5FE9B
:10076000171500001305C55097050020938585894E
:10077000170600201306868C63FAC5008322050045
:1007800023A0550011059105E3EAC5FE17050020D9
:100790001305C58A9385C1806377B50023200500C2
:1007A0001105E36DB5FEB7220000938202887390B5
:1007B00002308D42739042809702000093828284BF
:1007C00093E2320073905230EFF09FC9970200001D
:1007D0009382C2BE7390123473002030311122C84C
:1007E00040082328A4FE2326B4FE232C04FEA30BDA
:1007F00004FE832704FFDC43232CF4FE032784FF3D
:10080000B707F1FF9387F7EFF98F232CF4FE8327C7
:10081000C4FE98438327C4FEDC43A207D98F032775
:1008200084FFD98F232CF4FE832704FF032784FF42
:10083000D8C3832704FF9C47232CF4FE032784FF9F
:10084000B7F7F1FF9387D77FF98F232CF4FE832727
:10085000C4FE984B8327C4FEDC475D8F8327C4FE0C
:100860009C478607D98F032784FFD98F232CF4FE5A
:10087000832704FF032784FF98C7832704FFDC57DF
:10088000232CF4FE032784FFB70710FFFD17F98F11
:10089000232CF4FE8327C4FEDC2BFD1713F7F70F80
:1008A000834774FFD98FA30BF4FE834774FFD207ED
:1008B000032784FFD98F232CF4FE832704FF03270B
:1008C00084FFD8D70100424451018280511122C4D3
:1008D0006000232CA4FE232AB4FE832744FF91CB7F
:1008E000832784FF9C4713E71700832784FF98C75B
:1008F00009A8832784FF9C4713F7E7FF832784FF1A
:1009000098C70100224431018280611122C2200077
:10091000232CA4FE832784FF9C4713E787008327AB
:1009200084FF98C70100124421018280511122C422
:100930006000232AA4FE232C04FE832744FF9C4747
:10094000A18B89C78547232CF4FE19A0232C04FE14
:10095000832784FF3E85224431018280611122C2B7
:100960002000232CA4FE832784FF9C4713E7470025
:10097000832784FF98C7010012442101828051110E
:1009800022C46000232AA4FE232C04FE832744FFF4
:100990009C47918B89C78547232CF4FE19A0232CF3
:1009A00004FE832784FF3E85224431018280511159
:1009B00022C46000232CA4FE232AB4FE832744FF14
:1009C00099CB832784FF9847B70750005D8F832713
:1009D00084FF98C719A8832784FF9847B707B0FFFB
:1009E000FD177D8F832784FF98C7010022443101C2
:1009F0008280311122C840082328A4FEAE873687A2
:100A0000A307F4FEB2872307F4FEBA87A306F4FE19
:100A1000232C04FE232A04FE0347F4FEA54763F6B5
:100A2000E706832704FFDC47232CF4FE8347F4FE0C
:100A3000138767FFBA878607BA971D47B317F70072
:100A4000232AF4FE832744FF93C7F7FF032784FF7D
:100A5000F98F232CF4FE8346D4FE8347F4FE1387DC
:100A600067FFBA878607BA97B397F600232AF4FE82
:100A7000032784FF832744FFD98F232CF4FE832789
:100A800004FF032784FFD8C785A0832704FF9C4B5E
:100A9000232CF4FE0347F4FEBA878607BA971D4756
:100AA000B317F700232AF4FE832744FF93C7F7FF09
:100AB000032784FFF98F232CF4FE8346D4FE0347DB
:100AC000F4FEBA878607BA97B397F600232AF4FE96
:100AD000032784FF832744FFD98F232CF4FE832729
:100AE00004FF032784FF98CB0347E4FE994763E69E
:100AF000E706832704FFDC5B232CF4FE8347E4FE38
:100B00001387F7FFBA878A07BA977D47B317F700AD
:100B1000232AF4FE832744FF93C7F7FF032784FFAC
:100B2000F98F232CF4FE8346F4FE8347E4FE1387FB
:100B3000F7FFBA878A07BA97B397F600232AF4FE1D
:100B4000032784FF832744FFD98F232CF4FE8327B8
:100B500004FF032784FFD8DBE9A80347E4FEB1477D
:100B600063E6E706832704FF9C5B232CF4FE8347A0
:100B7000E4FE138797FFBA878A07BA977D47B317B2
:100B8000F700232AF4FE832744FF93C7F7FF0327C8
:100B900084FFF98F232CF4FE8346F4FE8347E4FEA2
:100BA000138797FFBA878A07BA97B397F600232A65
:100BB000F4FE032784FF832744FFD98F232CF4FE00
:100BC000832704FF032784FF98DBA5A0832704FF66
:100BD000DC57232CF4FE8347E4FE138737FFBA87E4
:100BE0008A07BA977D47B317F700232AF4FE8327B5
:100BF00044FF93C7F7FF032784FFF98F232CF4FEEC
:100C00008346F4FE8347E4FE138737FFBA878A07DB
:100C1000BA97B397F600232AF4FE032784FF8327AD
:100C200044FFD98F232CF4FE832704FF032784FF7E
:100C3000D8D70100424451018280611122C22000B4
:100C4000232CA4FE832784FFFC47C207C1833E8573
:100C5000124421018280411122C60008232AA4FEE9
:100C6000AE87A309F4FE232C04FE832744FF984398
:100C7000834734FFF98F89C78547232CF4FE19A0D9
:100C8000232C04FE832784FF3E8532444101828069
:100C90001301C1FD22D040102320A4FE232EB4FC5A
:100CA000232C04FE232604FE232A04FE232404FE10
:100CB000232804FE232204FE8327C4FD9C47BD8B0A
:100CC000232CF4FE8327C4FD9C47C18B89CB83274B
:100CD000C4FDDC43032784FFD98F232CF4FE832734
:100CE000C4FD9E2393F7F70FE9CF832704FE9C43AF
:100CF0002328F4FE232A04FE5DA8832744FF05472A
:100D0000B317F7002324F4FE8327C4FD9E233E87F8
:100D1000832784FEF98F2326F4FE0327C4FE83274E
:100D200084FE6311F708832744FF8A072324F4FE17
:100D3000832784FE3D47B317F7002322F4FE832761
:100D400044FE93C7F7FF032704FFF98F2328F4FE1F
:100D5000832784FE032784FFB317F700032704FFCC
:100D6000D98F2328F4FE8327C4FD98479307800278
:100D7000631BF700832744FF05473317F7008327DA
:100D800004FED8CB05A08327C4FD984793078004B1
:100D9000631AF700832744FF05473317F7008327BB
:100DA00004FE98CB832744FF8507232AF4FE0327FC
:100DB00044FF9D47E3F3E7F4832704FE032704FF82
:100DC00098C301000254130141028280611122C2C2
:100DD0002000232CA4FEB7070020032784FF23AEA6
:100DE000E7020100124421018280011122CE00108D
:100DF0002320A4FEB707002003A7C703854763117C
:100E0000F708832704FE983385476310F704832788
:100E100004FE9C233E87832704FEBC239A07E20737
:100E2000E18793E707F8E207E18793F7F70F232CB1
:100E3000E4FEA30BF4FE37E700E0832784FFBA97B4
:100E4000034774FF2380E74025A8832704FE9C33D3
:100E500085EB832704FE9C233E87832704FEBC2367
:100E60009A0793F7F70F2328E4FEA307F4FE37E76A
:100E700000E0832704FFBA970347F4FE2380E7408E
:100E8000832704FEDC439DC7832704FE9C23232481
:100E9000F4FE832784FEFD8B0547B316F70037E782
:100EA00000E0832784FE9583938707048A07BA9717
:100EB00094C305A8832704FE9C232322F4FE8327E2
:100EC00044FEFD8B0547B316F70037E700E08327A4
:100ED00044FE9583938707068A07BA9794C30F1039
:100EE00000000100724405618280511122C460003B
:100EF000232AA4FE232C04FEB747024093870780D1
:100F00009C43232CF4FE032784FFB707FAFFFD1749
:100F1000F98F232CF4FE832744FF9C43139727016A
:100F2000832744FFDC43C607D98F032784FFD98F6B
:100F3000232CF4FEB747024093870780032784FFE2
:100F400098C30100224431018280611122C2200035
:100F5000232CA4FE032784FF8547631FF700B747B0
:100F60000240938707809443B747024093870780E6
:100F70004167558F98C331A8B747024093870780D0
:100F80009443B74702409387078041777D17758F59
:100F900098C30100124421018280511122C46000D3
:100FA000AA87A30BF4FE232C04FEB71702409C4330
:100FB000232CF4FE832784FF93F777F0232CF4FE91
:100FC000834774FF8E07032784FFD98F232CF4FEF9
:100FD000B7170240032784FF98C301002244310160
:100FE0008280511122C46000232AA4FE232C04FE17
:100FF000B7170240DC43232CF4FE032784FFC1779C
:101000009387F77FF98F232CF4FE032784FF832730
:1010100044FFD98F232CF4FEB7170240032784FF27
:10102000D8C30100224431018280111106CC22CAAA
:1010300060082322A4FE232804FE232604FE232482
:1010400004FEB7170240DC43B18B2328F4FE0327CC
:1010500004FF91476302F702032704FFA1476305DA
:10106000F702832704FFB9EB832744FE37376E016D
:101070001307076098C399A8832744FE37376E018A
:101080001307076098C399A0B7170240D843C167F8
:10109000F98F2326F4FE8327C4FE89EB832744FEC1
:1010A0003777DC02130707C098C30DA0832744FEDF
:1010B0003777DC02130707C098C309A8832744FECB
:1010C00037376E011307076098C30100B717024056
:1010D000DC4393F7070F2328F4FE832704FF918353
:1010E0002328F4FEB707002013874701832704FF56
:1010F000BA979C2393F7F70F2324F4FEB717024007
:10110000DC4393F7070899EF832744FE9C4383252C
:1011100084FE3E85EFE0DFFAAA873E87832744FE00
:10112000D8C319A8832744FE9843832784FE3357E6
:10113000F700832744FED8C3832744FED843832780
:1011400044FE98C7832744FED843832744FED8C76C
:10115000B7170240D843C16793870780F98F2328C8
:10116000F4FE832704FFAD832328F4FE832704FFC6
:101170008D8313F73700832704FF8A07F18BD98FFC
:101180002328F4FE832704FF13F737018D4763F804
:10119000E700832704FFD1172328F4FE31A083271B
:1011A00004FF8D8B2328F4FEB70700201387470226
:1011B000832704FFBA979C2393F7F70F2324F4FEA9
:1011C000832744FEDC47832584FE3E85EFE05FEF06
:1011D000AA873E87832744FE98CB0100E240524411
:1011E00071018280511122C46000232CA4FE232AA5
:1011F000B4FE832744FF99CBB7170240944FB7172B
:101200000240032784FF558F98CF21A8B7170240CB
:10121000944F832784FF13C7F7FFB7170240758FDA
:1012200098CF0100224431018280511122C4600014
:10123000232CA4FE232AB4FE832744FF99CBB7179F
:101240000240D44FB7170240032784FF558FD8CFF1
:1012500021A8B7170240D44F832784FF13C7F7FF95
:10126000B7170240758FD8CF010022443101828028
:10127000411122C60008232AA4FE2328B4FE231D00
:1012800004FE832744FF9E23231DF4FE032744FF0F
:10129000B7370140938707C06308F700032744FF6F
:1012A000B70700406310F7028357A4FF93F7F7F8DE
:1012B000231DF4FE832704FFBA238357A4FFD98F8D
:1012C000231DF4FE8357A4FF93F7F7CF231DF4FEED
:1012D000832704FFFA238357A4FFD98F231DF4FE2D
:1012E000832744FF0357A4FF9AA3832704FFDA232D
:1012F000832744FFDAB7832704FF9A23832744FF19
:101300009AB7032744FFB7370140938707C0631B91
:10131000F700832704FF9C27139707014183832746
:1013200044FF9ABB832744FF0547DAAB01003244F0
:1013300041018280511122C46000232CA4FE232A83
:10134000B4FE832744FF99CF832784FF9E23C207DF
:10135000C18393E71700139707014183832784FF15
:101360009AA329A8832784FF9E23C207C183F99BE0
:10137000139707014183832784FF9AA30100224426
:1013800031018280411122C60008232CA4FEAE87C1
:101390002328C4FE231BF4FE832704FF8DC3832769
:1013A00084FFDE27139707014183835764FFD98F9A
:1013B000139707014183832784FFDAA725A083279A
:1013C00084FFDE27139707014183835764FF93C788
:1013D000F7FFC207C183F98F139707014183832762
:1013E00084FFDAA70100324441018280511122C4F6
:1013F0006000232CA4FEAE87231BF4FE832784FF0A
:10140000035764FFDAB30100224431018280511195
:1014100022C46000232CA4FEAE87231BF4FE832786
:1014200084FF035764FFDAB7010022443101828050
:10143000311122C840082328A4FEAE872317F4FEEA
:10144000232C04FE231B04FE231A04FE832704FF1F
:101450009E2B1397070141838357E4FEF98F231BCB
:10146000F4FE832704FFDE27139707014183835788
:10147000E4FEF98F231AF4FE835764FF81CB835770
:1014800044FF89C78547232CF4FE19A0232C04FEB2
:10149000832784FF3E85424451018280511122C43A
:1014A0006000232CA4FEAE87231BF4FE835764FF49
:1014B00093C7F7FF139707014183832784FF9AABF4
:1014C0000100224431018280130141FC06DC22DA52
:1014D00060182324A4FC2322B4FC232804FE232622
:1014E00004FE232404FE232204FE232004FE83277B
:1014F00084FC2320F4FE832784FC9E2BC207C18337
:101500002328F4FE032704FFB567FD17F98F23286E
:10151000F4FE832744FCFE233E87832704FFD98FF4
:101520002328F4FE832704FF1397070141838327B1
:1015300084FC9AAB832784FCDE27C207C18323285F
:10154000F4FE032704FFBD679387379FF98F232895
:10155000F4FE832744FCDA23832744FC9E27D98F9B
:10156000139707014183832744FCBE27D98FC20705
:10157000C1833E87832704FFD98F2328F4FE832766
:1015800004FF139707014183832784FCDAA783278D
:1015900084FCDE2BC207C1832328F4FE032704FF4B
:1015A000C1679387F7CFF98F2328F4FE832744FC84
:1015B000DE273E87832704FFD98F2328F4FE832765
:1015C00004FF139707014183832784FCDAAB930759
:1015D000C4FC3E85993C032704FEB747014093872E
:1015E00007806317F700832784FD2326F4FE29A0D4
:1015F000832744FD2326F4FE832784FCDE27C207CD
:10160000C183C207C18763D507020327C4FEBA8717
:101610008607BA978E073E97832744FC9C4386072C
:10162000BE853A85EFE0DFA9AA872324F4FE1DA03A
:101630000327C4FEBA878607BA978E073E9783278B
:1016400044FC9C438A07BE853A85EFE07FA7AA87C2
:101650002324F4FE832784FE930540063E85EFE0B5
:101660003FA6AA8792072328F4FE832704FF13D7F7
:101670004700BA878607BA978E07BA978A073E87C8
:10168000832784FE998F2322F4FE832784FCDE27A0
:10169000C207C183C207C18763D40702832744FE00
:1016A0008E0793872703930540063E85EFE05FA1F1
:1016B000AA879D8B032704FFD98F2328F4FE15A04A
:1016C000832744FE920793872703930540063E85B0
:1016D000EFE01F9FAA87BD8B032704FFD98F232824
:1016E000F4FE832704FF139707014183832784FCBB
:1016F0009AA70100E25052541301C1038280511194
:1017000022C46000232CA4FE232AB4FE832744FFB6
:1017100085C3832784FFDE271397070141838967E9
:10172000D98F139707014183832784FFDAA705A088
:10173000832784FFDE27139707014183F977FD177D
:10174000F98F139707014183832784FFDAA70100EC
:10175000224431018280011122CE00102324A4FEF4
:10176000AE872320C4FE2313F4FE232A04FE23287D
:1017700004FE232604FE232C04FE832784FE232C50
:10178000F4FE835764FE93F7F70F958393F7F70FF3
:10179000232AF4FE835764FEFD8B2328F4FE83275F
:1017A00004FF0547B317F7002326F4FE032744FF81
:1017B00085476318F700832784FFB107232CF4FEC5
:1017C0000DA0032744FF89476318F700832784FF90
:1017D000C107232CF4FE31A0832784FFD107232CDB
:1017E000F4FE832704FE99CB832784FF9443832749
:1017F00084FF0327C4FE558F98C321A8832784FF45
:1018000094438327C4FE13C7F7FF832784FF758F94
:1018100098C30100724405618280511122C46000A6
:10182000232CA4FEAE87231BF4FE835764FF93F79B
:10183000F71F139707014183832784FFDAA3010071
:10184000224431018280611122C22000232CA4FE97
:10185000832784FFDE23C207C18393F7F71FC207E4
:10186000C1833E85124421018280411122C60008B5
:10187000232AA4FEAE872319F4FE232C04FE83271B
:1018800044FF9E23139707014183835724FFF98F59
:10189000C207C18389C78547232CF4FE19A0232CD6
:1018A00004FE832784FF3E8532444101828011116A
:1018B00022CC60082324A4FEAE872313F4FE232841
:1018C00004FE232C04FE232604FE232A04FE835751
:1018D00064FE93F7F70F958393F7F70F2326F4FE33
:1018E000835764FEFD8B232CF4FE832784FF05477A
:1018F000B317F700232CF4FE0327C4FE8547631EAD
:10190000F700832784FEDE27C207C1833E87832733
:1019100084FFF98F232CF4FE2DA80327C4FE8947EA
:10192000631EF700832784FE9E2BC207C1833E8778
:10193000832784FFF98F232CF4FE21A8832784FEBC
:10194000DE2BC207C1833E87832784FFF98F232CB8
:10195000F4FE835764FEA183C207C1832328F4FEEB
:10196000832704FF0547B317F7002328F4FE8327D6
:1019700084FE9E23C207C1833E87832704FFF98F1D
:101980002328F4FE832784FF81CB832704FF89C7A4
:101990008547232AF4FE19A0232A04FE832744FF47
:1019A0003E85624471018280411122C60008232ACB
:1019B000A4FEAE872319F4FE231D04FE231C04FE9F
:1019C000835724FFA183231DF4FE8357A4FF0547FB
:1019D000B317F700231CF4FE835784FF93C7F7FF68
:1019E000139707014183832744FF9AA301003244E0
:1019F00041018280797106D622D4001885451305ED
:101A00000020EFF02FFE854513050002EFF08FFD5B
:101A10003165EFF00FDD232804FEC1472314F4FEE7
:101A20008D472326F4FE930784FEBE85B717014039
:101A300013850740EFF0CFA5954605469D45B7278E
:101A4000014013850740EFE0DFFA232804FC232A36
:101A500004FC232C04FCB7070E00232EF4FC2320E7
:101A600004FE85472302F4FE930704FDBE85B727D5
:101A7000014013850740EFE07FD68545B727014039
:101A800013850740EFE09FE4B72701401385074027
:101A9000EFE0BFE70100B727014013850740EFE003
:101AA000FFE8AA87EDFBB727014013850740EFE069
:101AB000FFEA0100B727014013850740EFE03FEC44
:101AC000AA87EDFB0100B25022544561828051117A
:101AD00006C422C260008545B72701401385074030
:101AE000EFE0FFEC01008945B7270140138507406F
:101AF000EFF06F96AA87E5DBB72701401385074013
:101B0000EFF0AF93AA873E85A24012443101828054
:101B1000511106C422C26000B707002003A70700C6
:101B2000B7177A00938507203A85EFE06FD9AA8727
:101B300013F7F70FB70700202380E704B70700204B
:101B400083C70704C207C1833E8716071D8F0A0794
:101B5000BA978E071397070141832395E18001000F
:101B6000A240124431018280311106C822C64008C9
:101B70002326A4FEB7F700E0D843B7F700E0799B2F
:101B8000D8C383D7A180BE850325C4FEEFE04FD123
:101B9000AA872328F4FEB7F700E0032704FF98CBB9
:101BA000B7F700E023A40700B7F700E09843B7F7C2
:101BB00000E01367170098C30100B7F700E0DC43AB
:101BC00013F717008547E31AF7FEB7F700E09843CD
:101BD000B7F700E0799B98C30100C240324451013D
:101BE0008280130141FD06D422D26010232AA4FC76
:101BF0008545916713850702EFF0CFDE930700025A
:101C00002314F4FE8D472326F4FEE1472328F4FE37
:101C1000930784FEBE85B717014013850740EFF098
:101C20002F87832744FD232CF4FC231E04FC231F51
:101C300004FC231004FE231204FEA1472311F4FE2A
:101C4000930784FDBE85B747014013850780EFF0F9
:101C5000BF878545B7470140138507804D34010094
:0C1C6000A25012541301C1028280000047
:101C6C00006CDC02010203040506070801020304F0
:101C7C000506070801020304050607080102030410
:101C8C00050607080204060804080C1008101820A2
:081C9C00102030402040608060
:00000001FF
